:100000006CC01AC285C084C083C082C081C080C059
:100010007FC07EC07DC07CC07BC07AC079C078C004
:1000200077C076C075C074C073C072C071C070C034
:100030006FC06EC0180355005300420041005300CA
:1000400050002D004D0049004400490012036F008C
:1000500062006400650076002E00610074000403F5
:100060000904090265000201008032090400000051
:100070000101000009240100010900010109040136
:1000800000020103000007240100014100062402D0
:1000900001010006240202020009240301030102F7
:1000A00001000924030204010101000905010308FC
:1000B000000A000005250101010905810308000A65
:1000C000000005250101031201100100000008C015
:1000D00016E8030001010200010011241FBECFEF4A
:1000E000D4E0DEBFCDBF11E0A0E0B1E0EEECF8E07F
:1000F00002C005900D92A231B107D9F721E0A2E12B
:10010000B1E001C01D92AE37B207E1F789D3DDC37C
:1001100077CFCF93209153012E31F1F020915301ED
:1001200024FF07C03091540128E82327209354016D
:1001300003C02AE520935301262FFC01A5E5B1E079
:1001400081918D9321501216DCF3C62F85E591E045
:100150006FD1CC5FC0935301CF910895CF93DF93BC
:1001600060916401635067FDCBC080916101CCE078
:10017000D0E0C81BD109C859DE4F809160018031A1
:1001800018F4CE01F7D2BAC08D3209F0A8C0683099
:1001900009F0B4C083EC809348018AE580930101A3
:1001A000109212012881822F807619F0CE0195D20B
:1001B00083C09A813C81109251018981811113C0C1
:1001C0002F71223051F4313841F49091530181E084
:1001D0009E3109F080E0809351011092520121E597
:1001E00031E082E064C0282F2D7F213081F491110D
:1001F0005BC0313809F058C0813011F08EE101C088
:100200008AE5809353018BE4809354014DC085307F
:1002100019F49093650148C0863069F58B8181306F
:1002200011F0823019F4CE0144D221C08330F1F4B0
:10023000911108C08EE590E0909363018093620174
:1002400084E015C0913041F48CE490E09093630118
:100250008093620182E10BC0923041F484E390E02C
:10026000909363018093620188E101C080E090E493
:100270009093120121C0883081F0893019F4909355
:10028000670107C08A3061F08B3071F48BE4809392
:1002900054018AE58093530107C027E631E002C08C
:1002A00021E531E081E003C021E531E080E03093D9
:1002B00063012093620109C08F3F39F4988197FD53
:1002C0008E8190E89093120107C09F81911104C024
:1002D0009E81981708F4892F809300010FC08091A8
:1002E000120187FF0BC0CE0104D28F3F21F48EE1B3
:1002F0008093010103C081111092000110926401EA
:100300008091010184FF5BC0809100018F3F09F45F
:1003100056C0C82F893008F0C8E08C1B80930001BC
:100320009091480188E8892780934801CC2309F4FB
:1003300054C02091120127FF08C06C2F89E491E07E
:10034000CED1C82F8930A8F529C080916201909143
:10035000630126FF12C0A8E4B1E02C2FAC01485481
:100360005140FA01EA0FFB1FE4911196EC931197AB
:10037000215011962111F5CF08C0E9E4F1E0DC012C
:100380002C2F3D9131932150E1F701962FEF2C0F47
:10039000820F911D90936301809362016C2F89E419
:1003A00091E046D0CC5FCC3041F08FEF80930001DC
:1003B00004C08FEF80930001CEE1C093010184E17E
:1003C00093B1937081F48150D9F710926501109226
:1003D0005F018AE58093530106C060E089E491E003
:1003E00027D0C4E0E2CFDF91CF910895E9E6F0E0B5
:1003F000808182608083E89AE3E5F1E08BE4818389
:100400008AE580830895A82FB92F80E090E041E02D
:1004100050EA609530E009C02D9182279795879525
:1004200010F084279527305EC8F36F5FA8F3089516
:10043000EADF8D939D930895CF93CFB7CF93C39564
:10044000189BE9F7189B09C0189B07C0189B05C0AB
:10045000189B03C0189B01C0A6C0DF93C091610127
:10046000DD27C859DE4F189B02C0DF91EBCF2F93D9
:100470000F931F9303B12FEF00FB20F94F933F938E
:1004800013B14FEF012700FB21F93BE031C04E7F54
:10049000012F13B1216028C0102F4D7F2260000072
:1004A00003B129C04B7F2460012F000013B12BC082
:1004B00013B1477F28602AC04F7E03B120612CC052
:1004C0004F7D13B120622FC04F7B03B1206432C037
:1004D000422703B149934FEF0000102710FB20F98A
:1004E00013B11370C9F1297F91F2012700FB21F9A3
:1004F00003B1237F89F2315058F1102710FB22F904
:1005000013B1277E79F2012700FB23F92F7C81F2BA
:1005100003B1102710FB24F92F7971F200C013B139
:10052000012700FB25F92F7359F200C003B11027F2
:1005300010FB26F9223040F200C013B1012700FB66
:1005400027F9243028F64F77206813B10000F9CF3F
:1005500011E01CBB00271CC03B503195C31BD04091
:1005600011E01CBB0881033C11F10B3401F1209117
:100570005F011981110F1213EDCF4A81441F093613
:1005800059F10D3211F0013E29F74F7009F0042F97
:10059000009366013F914F911F910F912F91DF9131
:1005A000CCB3C0FD4CCFCF91CFBFCF911895209148
:1005B0006601222379F310916401112369F5343027
:1005C0006AF13093640120936001109161013BE076
:1005D000311B3093610122C0009164010130E4F4C9
:1005E0000AE54F7049F43091010134FD19C00093C0
:1005F0000101C8E4D1E018C03091530134FD10C0AE
:1006000000935301C4E5D1E00FC02795A8F45150E1
:10061000A9F4220F0000F9CF4AE503C042ED01C062
:10062000432FC4E1D0E032E014B11360289A14B92A
:1006300005B120E413E05F93012756E005B9279543
:1006400020F4515021F4220FF9CF012756E0000089
:100650003B5A05B9D0F2279528F4515029F4220FBE
:100660000000F9CF012756E0279505B920F4515035
:1006700021F4220FF9CF012756E02991332305B940
:1006800021F60C7F10916501110FC651D04005B9BC
:1006900011F010935F0111E01CBB016014B11C7FCD
:1006A000402F4C7F5F9100C000C005B914B945B917
:1006B00071CFFC018381813041F487EC90E090930D
:1006C00063018093620182E1089582E690E0909355
:1006D00063018093620185E608958FEF0895FC0120
:1006E000108211821282138214821582168287E090
:1006F0000895409A81E00895CF93DF93FC01308103
:10070000232F2F70283029F0293039F483818F77F7
:1007100011F4409809C0409A07C0223028F465308F
:1007200030F164503496EBCF90913601EF01219671
:1007300081E03B7044EF420F5991A92FB0E0AB5ECE
:10074000BE4F5C939F5F9F71813029F4253061F02B
:100750002F3039F409C0823021F4323029F0423090
:1007600018F08F5F843041F790933601D8CFDF9136
:10077000CF910895C1CF982F88B141E0842788B9DF
:1007800080911401882331F0973F11F410921401E5
:1007900080E00895983F50F08FE080933701909368
:1007A00038011092390110923A0138C097FF07C002
:1007B000903F19F440931401089510921301809111
:1007C0001301811110C0392F32953F70232F2770EC
:1007D000220F2E5F2093130130933F01909340012D
:1007E000109242010895E82FF0E0EE5FFE4F408145
:1007F000282F217030E0F901E15CFE4F9283842FB5
:100800008F708093130147FFC3CF84E0EFE3F1E0E3
:10081000A7E3B1E001900D928A95E1F781E0089598
:1008200088E19EE00FB6F894A895809360000FBE13
:10083000909360009CEF95B91092C50097E190935A
:10084000C4008093C10081E087B982E08AB98FE259
:1008500095E70197F1F700C00000C8DD7894A895EE
:100860007DDC8091C00085FF15C0E091350180914D
:1008700036018E1779F081E08E0F80933501F0E01C
:10088000EB5EFE4F80818093C600809135018F71B1
:10089000809335018091C00087FF08C08091C60019
:1008A0006ADF90914701892B809347018091530122
:1008B00084FFD5CF80914701882389F264E087E3E4
:0E08C00091E027DC10924701CACFF894FFCFD9
:1008CE00FF5A000003820584078609888A008C007F
:0208DE000F8E7B
:00000001FF
